{
  "contractName": "MNT",
  "abi": [
    {
      "inputs": [],
      "stateMutability": "nonpayable",
      "type": "constructor"
    },
    {
      "anonymous": false,
      "inputs": [
        {
          "indexed": true,
          "internalType": "address",
          "name": "owner",
          "type": "address"
        },
        {
          "indexed": true,
          "internalType": "address",
          "name": "spender",
          "type": "address"
        },
        {
          "indexed": false,
          "internalType": "uint256",
          "name": "value",
          "type": "uint256"
        }
      ],
      "name": "Approval",
      "type": "event"
    },
    {
      "anonymous": false,
      "inputs": [
        {
          "indexed": true,
          "internalType": "address",
          "name": "previousOwner",
          "type": "address"
        },
        {
          "indexed": true,
          "internalType": "address",
          "name": "newOwner",
          "type": "address"
        }
      ],
      "name": "OwnershipTransferred",
      "type": "event"
    },
    {
      "anonymous": false,
      "inputs": [
        {
          "indexed": true,
          "internalType": "address",
          "name": "from",
          "type": "address"
        },
        {
          "indexed": true,
          "internalType": "address",
          "name": "to",
          "type": "address"
        },
        {
          "indexed": false,
          "internalType": "uint256",
          "name": "value",
          "type": "uint256"
        }
      ],
      "name": "Transfer",
      "type": "event"
    },
    {
      "inputs": [],
      "name": "approver",
      "outputs": [
        {
          "internalType": "address",
          "name": "",
          "type": "address"
        }
      ],
      "stateMutability": "view",
      "type": "function",
      "constant": true
    },
    {
      "inputs": [],
      "name": "duration",
      "outputs": [
        {
          "internalType": "uint256",
          "name": "",
          "type": "uint256"
        }
      ],
      "stateMutability": "view",
      "type": "function",
      "constant": true
    },
    {
      "inputs": [],
      "name": "releaseTime",
      "outputs": [
        {
          "internalType": "uint256",
          "name": "",
          "type": "uint256"
        }
      ],
      "stateMutability": "view",
      "type": "function",
      "constant": true
    },
    {
      "inputs": [],
      "name": "tokenCap",
      "outputs": [
        {
          "internalType": "uint256",
          "name": "",
          "type": "uint256"
        }
      ],
      "stateMutability": "view",
      "type": "function",
      "constant": true
    },
    {
      "stateMutability": "payable",
      "type": "receive",
      "payable": true
    },
    {
      "inputs": [],
      "name": "name",
      "outputs": [
        {
          "internalType": "string",
          "name": "",
          "type": "string"
        }
      ],
      "stateMutability": "view",
      "type": "function",
      "constant": true
    },
    {
      "inputs": [],
      "name": "symbol",
      "outputs": [
        {
          "internalType": "string",
          "name": "",
          "type": "string"
        }
      ],
      "stateMutability": "view",
      "type": "function",
      "constant": true
    },
    {
      "inputs": [],
      "name": "decimals",
      "outputs": [
        {
          "internalType": "uint8",
          "name": "",
          "type": "uint8"
        }
      ],
      "stateMutability": "view",
      "type": "function",
      "constant": true
    },
    {
      "inputs": [],
      "name": "totalSupply",
      "outputs": [
        {
          "internalType": "uint256",
          "name": "",
          "type": "uint256"
        }
      ],
      "stateMutability": "view",
      "type": "function",
      "constant": true
    },
    {
      "inputs": [],
      "name": "ViewTokenCap",
      "outputs": [
        {
          "internalType": "uint256",
          "name": "",
          "type": "uint256"
        }
      ],
      "stateMutability": "view",
      "type": "function",
      "constant": true
    },
    {
      "inputs": [],
      "name": "TokenOwner",
      "outputs": [
        {
          "internalType": "address",
          "name": "",
          "type": "address"
        }
      ],
      "stateMutability": "view",
      "type": "function",
      "constant": true
    },
    {
      "inputs": [],
      "name": "Auth_Price_Changer",
      "outputs": [
        {
          "internalType": "address",
          "name": "",
          "type": "address"
        }
      ],
      "stateMutability": "view",
      "type": "function",
      "constant": true
    },
    {
      "inputs": [
        {
          "internalType": "address",
          "name": "account",
          "type": "address"
        }
      ],
      "name": "balanceOf",
      "outputs": [
        {
          "internalType": "uint256",
          "name": "",
          "type": "uint256"
        }
      ],
      "stateMutability": "view",
      "type": "function",
      "constant": true
    },
    {
      "inputs": [
        {
          "internalType": "address",
          "name": "recipient",
          "type": "address"
        },
        {
          "internalType": "uint256",
          "name": "amount",
          "type": "uint256"
        }
      ],
      "name": "transfer",
      "outputs": [
        {
          "internalType": "bool",
          "name": "",
          "type": "bool"
        }
      ],
      "stateMutability": "nonpayable",
      "type": "function"
    },
    {
      "inputs": [
        {
          "internalType": "address",
          "name": "owner",
          "type": "address"
        },
        {
          "internalType": "address",
          "name": "spender",
          "type": "address"
        }
      ],
      "name": "allowance",
      "outputs": [
        {
          "internalType": "uint256",
          "name": "",
          "type": "uint256"
        }
      ],
      "stateMutability": "view",
      "type": "function",
      "constant": true
    },
    {
      "inputs": [
        {
          "internalType": "address",
          "name": "spender",
          "type": "address"
        },
        {
          "internalType": "uint256",
          "name": "amount",
          "type": "uint256"
        }
      ],
      "name": "approve",
      "outputs": [
        {
          "internalType": "bool",
          "name": "",
          "type": "bool"
        }
      ],
      "stateMutability": "nonpayable",
      "type": "function"
    },
    {
      "inputs": [
        {
          "internalType": "address",
          "name": "sender",
          "type": "address"
        },
        {
          "internalType": "address",
          "name": "recipient",
          "type": "address"
        },
        {
          "internalType": "uint256",
          "name": "amount",
          "type": "uint256"
        }
      ],
      "name": "transferFrom",
      "outputs": [
        {
          "internalType": "bool",
          "name": "",
          "type": "bool"
        }
      ],
      "stateMutability": "nonpayable",
      "type": "function"
    },
    {
      "inputs": [
        {
          "internalType": "address",
          "name": "spender",
          "type": "address"
        },
        {
          "internalType": "uint256",
          "name": "addedValue",
          "type": "uint256"
        }
      ],
      "name": "increaseAllowance",
      "outputs": [
        {
          "internalType": "bool",
          "name": "",
          "type": "bool"
        }
      ],
      "stateMutability": "nonpayable",
      "type": "function"
    },
    {
      "inputs": [
        {
          "internalType": "address",
          "name": "spender",
          "type": "address"
        },
        {
          "internalType": "uint256",
          "name": "subtractedValue",
          "type": "uint256"
        }
      ],
      "name": "decreaseAllowance",
      "outputs": [
        {
          "internalType": "bool",
          "name": "",
          "type": "bool"
        }
      ],
      "stateMutability": "nonpayable",
      "type": "function"
    },
    {
      "inputs": [
        {
          "internalType": "address",
          "name": "account",
          "type": "address"
        },
        {
          "internalType": "uint256",
          "name": "amount",
          "type": "uint256"
        }
      ],
      "name": "mint",
      "outputs": [],
      "stateMutability": "nonpayable",
      "type": "function"
    },
    {
      "inputs": [],
      "name": "viewPrice",
      "outputs": [
        {
          "internalType": "uint256",
          "name": "",
          "type": "uint256"
        },
        {
          "internalType": "string",
          "name": "",
          "type": "string"
        }
      ],
      "stateMutability": "view",
      "type": "function",
      "constant": true
    },
    {
      "inputs": [
        {
          "internalType": "uint256",
          "name": "newPrice",
          "type": "uint256"
        }
      ],
      "name": "setPrice",
      "outputs": [
        {
          "internalType": "uint256",
          "name": "",
          "type": "uint256"
        }
      ],
      "stateMutability": "nonpayable",
      "type": "function"
    },
    {
      "inputs": [],
      "name": "buyToken",
      "outputs": [
        {
          "internalType": "uint256",
          "name": "",
          "type": "uint256"
        },
        {
          "internalType": "string",
          "name": "",
          "type": "string"
        }
      ],
      "stateMutability": "payable",
      "type": "function",
      "payable": true
    },
    {
      "inputs": [],
      "name": "withdrawEther",
      "outputs": [
        {
          "internalType": "uint256",
          "name": "",
          "type": "uint256"
        },
        {
          "internalType": "string",
          "name": "",
          "type": "string"
        }
      ],
      "stateMutability": "nonpayable",
      "type": "function"
    },
    {
      "inputs": [
        {
          "internalType": "address",
          "name": "newOwner",
          "type": "address"
        }
      ],
      "name": "transferOwnership",
      "outputs": [],
      "stateMutability": "nonpayable",
      "type": "function"
    },
    {
      "inputs": [
        {
          "internalType": "address",
          "name": "delegatedAddress",
          "type": "address"
        }
      ],
      "name": "delegatePriceControl",
      "outputs": [],
      "stateMutability": "nonpayable",
      "type": "function"
    },
    {
      "inputs": [
        {
          "internalType": "uint256",
          "name": "tokenQty",
          "type": "uint256"
        }
      ],
      "name": "returnToken",
      "outputs": [
        {
          "internalType": "uint256",
          "name": "",
          "type": "uint256"
        },
        {
          "internalType": "string",
          "name": "",
          "type": "string"
        }
      ],
      "stateMutability": "payable",
      "type": "function",
      "payable": true
    }
  ],
  "bytecode": "0x60806040526078600655662386f26fc10000600a553480156200002157600080fd5b506040518060400160405280600881526020017f4d7920544f4b454e000000000000000000000000000000000000000000000000815250600390805190602001906200006f929190620001ca565b506040518060400160405280600381526020017f4d4e54000000000000000000000000000000000000000000000000000000000081525060049080519060200190620000bd929190620001ca565b50620000ce620001b960201b60201c565b600a620000dc919062000332565b624c4b40620000ec91906200046f565b60028190555060025460008062000108620001c260201b60201c565b73ffffffffffffffffffffffffffffffffffffffff1673ffffffffffffffffffffffffffffffffffffffff1681526020019081526020016000208190555033600560006101000a81548173ffffffffffffffffffffffffffffffffffffffff021916908373ffffffffffffffffffffffffffffffffffffffff160217905550600654426200019791906200027a565b60078190555060028054620001ad91906200046f565b60088190555062000588565b60006012905090565b600033905090565b828054620001d890620004e7565b90600052602060002090601f016020900481019282620001fc576000855562000248565b82601f106200021757805160ff191683800117855562000248565b8280016001018555821562000248579182015b82811115620002475782518255916020019190600101906200022a565b5b5090506200025791906200025b565b5090565b5b80821115620002765760008160009055506001016200025c565b5090565b60006200028782620004d0565b91506200029483620004d0565b9250827fffffffffffffffffffffffffffffffffffffffffffffffffffffffffffffffff03821115620002cc57620002cb6200051d565b5b828201905092915050565b6000808291508390505b600185111562000329578086048111156200030157620003006200051d565b5b6001851615620003115780820291505b808102905062000321856200057b565b9450620002e1565b94509492505050565b60006200033f82620004d0565b91506200034c83620004da565b92506200037b7fffffffffffffffffffffffffffffffffffffffffffffffffffffffffffffffff848462000383565b905092915050565b60008262000395576001905062000468565b81620003a5576000905062000468565b8160018114620003be5760028114620003c957620003ff565b600191505062000468565b60ff841115620003de57620003dd6200051d565b5b8360020a915084821115620003f857620003f76200051d565b5b5062000468565b5060208310610133831016604e8410600b8410161715620004395782820a9050838111156200043357620004326200051d565b5b62000468565b620004488484846001620002d7565b925090508184048111156200046257620004616200051d565b5b81810290505b9392505050565b60006200047c82620004d0565b91506200048983620004d0565b9250817fffffffffffffffffffffffffffffffffffffffffffffffffffffffffffffffff0483118215151615620004c557620004c46200051d565b5b828202905092915050565b6000819050919050565b600060ff82169050919050565b600060028204905060018216806200050057607f821691505b602082108114156200051757620005166200054c565b5b50919050565b7f4e487b7100000000000000000000000000000000000000000000000000000000600052601160045260246000fd5b7f4e487b7100000000000000000000000000000000000000000000000000000000600052602260045260246000fd5b60008160011c9050919050565b612a0f80620005986000396000f3fe6080604052600436106101855760003560e01c806370a08231116100d1578063a9059cbb1161008a578063dd54291b11610064578063dd54291b146105c3578063dd62ed3e146105ee578063e41bf8021461062b578063f2fde38b1461065657610196565b8063a9059cbb1461052f578063b91d40011461056c578063d7dcdcec1461059757610196565b806370a08231146104025780637362377b1461043f57806391b7f5ed1461046b57806395d89b41146104a8578063a457c2d7146104d3578063a48217191461051057610196565b80632b1410821161013e5780633950935111610118578063395093511461034257806340c10f191461037f5780634477d005146103a85780636178efee146103d157610196565b80632b141082146102c1578063313ce567146102ec578063315bdc361461031757610196565b806306fdde031461019b578063095ea7b3146101c65780630fb5a6b414610203578063141a8dd81461022e57806318160ddd1461025957806323b872dd1461028457610196565b366101965761019261067f565b5050005b600080fd5b3480156101a757600080fd5b506101b06107f3565b6040516101bd9190611fd3565b60405180910390f35b3480156101d257600080fd5b506101ed60048036038101906101e89190611c93565b610885565b6040516101fa9190611fb8565b60405180910390f35b34801561020f57600080fd5b506102186108a3565b60405161022591906121f5565b60405180910390f35b34801561023a57600080fd5b506102436108a9565b6040516102509190611f9d565b60405180910390f35b34801561026557600080fd5b5061026e6108cf565b60405161027b91906121f5565b60405180910390f35b34801561029057600080fd5b506102ab60048036038101906102a69190611c44565b6108d9565b6040516102b89190611fb8565b60405180910390f35b3480156102cd57600080fd5b506102d66109da565b6040516102e39190611f9d565b60405180910390f35b3480156102f857600080fd5b50610301610a04565b60405161030e9190612240565b60405180910390f35b34801561032357600080fd5b5061032c610a0d565b6040516103399190611f9d565b60405180910390f35b34801561034e57600080fd5b5061036960048036038101906103649190611c93565b610a37565b6040516103769190611fb8565b60405180910390f35b34801561038b57600080fd5b506103a660048036038101906103a19190611c93565b610ae3565b005b3480156103b457600080fd5b506103cf60048036038101906103ca9190611bdf565b610b81565b005b6103eb60048036038101906103e69190611ccf565b610cc5565b6040516103f9929190612210565b60405180910390f35b34801561040e57600080fd5b5061042960048036038101906104249190611bdf565b610f5d565b60405161043691906121f5565b60405180910390f35b34801561044b57600080fd5b50610454610fa5565b604051610462929190612210565b60405180910390f35b34801561047757600080fd5b50610492600480360381019061048d9190611ccf565b6110ae565b60405161049f91906121f5565b60405180910390f35b3480156104b457600080fd5b506104bd6111a9565b6040516104ca9190611fd3565b60405180910390f35b3480156104df57600080fd5b506104fa60048036038101906104f59190611c93565b61123b565b6040516105079190611fb8565b60405180910390f35b61051861067f565b604051610526929190612210565b60405180910390f35b34801561053b57600080fd5b5061055660048036038101906105519190611c93565b61132f565b6040516105639190611fb8565b60405180910390f35b34801561057857600080fd5b50610581611392565b60405161058e91906121f5565b60405180910390f35b3480156105a357600080fd5b506105ac611398565b6040516105ba929190612210565b60405180910390f35b3480156105cf57600080fd5b506105d86113dd565b6040516105e591906121f5565b60405180910390f35b3480156105fa57600080fd5b5061061560048036038101906106109190611c08565b6113e3565b60405161062291906121f5565b60405180910390f35b34801561063757600080fd5b5061064061146a565b60405161064d91906121f5565b60405180910390f35b34801561066257600080fd5b5061067d60048036038101906106789190611bdf565b611474565b005b60006060600034116106c6576040517f08c379a00000000000000000000000000000000000000000000000000000000081526004016106bd90612155565b60405180910390fd5b60003490506000600a54826106db91906122cd565b9050670de0b6b3a7640000816106f191906122fe565b600080600560009054906101000a900473ffffffffffffffffffffffffffffffffffffffff1673ffffffffffffffffffffffffffffffffffffffff1673ffffffffffffffffffffffffffffffffffffffff16815260200190815260200160002060008282546107609190612358565b92505081905550670de0b6b3a76400008161077b91906122fe565b6000803373ffffffffffffffffffffffffffffffffffffffff1673ffffffffffffffffffffffffffffffffffffffff16815260200190815260200160002060008282546107c89190612277565b9250508190555080604051806060016040528060278152602001612991602791399350935050509091565b60606003805461080290612414565b80601f016020809104026020016040519081016040528092919081815260200182805461082e90612414565b801561087b5780601f106108505761010080835404028352916020019161087b565b820191906000526020600020905b81548152906001019060200180831161085e57829003601f168201915b5050505050905090565b60006108996108926115b8565b84846115c0565b6001905092915050565b60065481565b600960009054906101000a900473ffffffffffffffffffffffffffffffffffffffff1681565b6000600254905090565b60006108e684848461178b565b6000600160008673ffffffffffffffffffffffffffffffffffffffff1673ffffffffffffffffffffffffffffffffffffffff16815260200190815260200160002060006109316115b8565b73ffffffffffffffffffffffffffffffffffffffff1673ffffffffffffffffffffffffffffffffffffffff168152602001908152602001600020549050828110156109b1576040517f08c379a00000000000000000000000000000000000000000000000000000000081526004016109a890612135565b60405180910390fd5b6109ce856109bd6115b8565b85846109c99190612358565b6115c0565b60019150509392505050565b6000600560009054906101000a900473ffffffffffffffffffffffffffffffffffffffff16905090565b60006012905090565b6000600960009054906101000a900473ffffffffffffffffffffffffffffffffffffffff16905090565b6000610ad9610a446115b8565b848460016000610a526115b8565b73ffffffffffffffffffffffffffffffffffffffff1673ffffffffffffffffffffffffffffffffffffffff16815260200190815260200160002060008873ffffffffffffffffffffffffffffffffffffffff1673ffffffffffffffffffffffffffffffffffffffff16815260200190815260200160002054610ad49190612277565b6115c0565b6001905092915050565b600560009054906101000a900473ffffffffffffffffffffffffffffffffffffffff1673ffffffffffffffffffffffffffffffffffffffff163373ffffffffffffffffffffffffffffffffffffffff1614610b73576040517f08c379a0000000000000000000000000000000000000000000000000000000008152600401610b6a90612035565b60405180910390fd5b610b7d8282611a0a565b5050565b600560009054906101000a900473ffffffffffffffffffffffffffffffffffffffff1673ffffffffffffffffffffffffffffffffffffffff163373ffffffffffffffffffffffffffffffffffffffff1614610c11576040517f08c379a0000000000000000000000000000000000000000000000000000000008152600401610c0890612035565b60405180910390fd5b600073ffffffffffffffffffffffffffffffffffffffff168173ffffffffffffffffffffffffffffffffffffffff161415610c81576040517f08c379a0000000000000000000000000000000000000000000000000000000008152600401610c7890612055565b60405180910390fd5b80600960006101000a81548173ffffffffffffffffffffffffffffffffffffffff021916908373ffffffffffffffffffffffffffffffffffffffff16021790555050565b6000606060008060003373ffffffffffffffffffffffffffffffffffffffff1673ffffffffffffffffffffffffffffffffffffffff1681526020019081526020016000205411610d4a576040517f08c379a0000000000000000000000000000000000000000000000000000000008152600401610d4190612115565b60405180910390fd5b826000803373ffffffffffffffffffffffffffffffffffffffff1673ffffffffffffffffffffffffffffffffffffffff168152602001908152602001600020541015610dcb576040517f08c379a0000000000000000000000000000000000000000000000000000000008152600401610dc290612095565b60405180910390fd5b6000600a5484610ddb91906122fe565b90506000339050670de0b6b3a764000085610df691906122fe565b600080600560009054906101000a900473ffffffffffffffffffffffffffffffffffffffff1673ffffffffffffffffffffffffffffffffffffffff1673ffffffffffffffffffffffffffffffffffffffff1681526020019081526020016000206000828254610e659190612277565b92505081905550670de0b6b3a764000085610e8091906122fe565b6000803373ffffffffffffffffffffffffffffffffffffffff1673ffffffffffffffffffffffffffffffffffffffff1681526020019081526020016000206000828254610ecd9190612358565b925050819055508073ffffffffffffffffffffffffffffffffffffffff166108fc839081150290604051600060405180830381858888f19350505050158015610f1a573d6000803e3d6000fd5b50816040518060400160405280601f81526020017f45746865722072657475726e656420746f20796f7572206163636f756e742e00815250935093505050915091565b60008060008373ffffffffffffffffffffffffffffffffffffffff1673ffffffffffffffffffffffffffffffffffffffff168152602001908152602001600020549050919050565b60006060600560009054906101000a900473ffffffffffffffffffffffffffffffffffffffff1673ffffffffffffffffffffffffffffffffffffffff163373ffffffffffffffffffffffffffffffffffffffff1614611039576040517f08c379a000000000000000000000000000000000000000000000000000000000815260040161103090612035565b60405180910390fd5b600047905060003390508073ffffffffffffffffffffffffffffffffffffffff166108fc839081150290604051600060405180830381858888f19350505050158015611089573d6000803e3d6000fd5b50816040518060600160405280602281526020016129b8602291399350935050509091565b6000600560009054906101000a900473ffffffffffffffffffffffffffffffffffffffff1673ffffffffffffffffffffffffffffffffffffffff163373ffffffffffffffffffffffffffffffffffffffff1614806111595750600960009054906101000a900473ffffffffffffffffffffffffffffffffffffffff1673ffffffffffffffffffffffffffffffffffffffff163373ffffffffffffffffffffffffffffffffffffffff16145b611198576040517f08c379a000000000000000000000000000000000000000000000000000000000815260040161118f90612015565b60405180910390fd5b81600a81905550600a549050919050565b6060600480546111b890612414565b80601f01602080910402602001604051908101604052809291908181526020018280546111e490612414565b80156112315780601f1061120657610100808354040283529160200191611231565b820191906000526020600020905b81548152906001019060200180831161121457829003601f168201915b5050505050905090565b6000806001600061124a6115b8565b73ffffffffffffffffffffffffffffffffffffffff1673ffffffffffffffffffffffffffffffffffffffff16815260200190815260200160002060008573ffffffffffffffffffffffffffffffffffffffff1673ffffffffffffffffffffffffffffffffffffffff16815260200190815260200160002054905082811015611307576040517f08c379a00000000000000000000000000000000000000000000000000000000081526004016112fe906121b5565b60405180910390fd5b6113246113126115b8565b85858461131f9190612358565b6115c0565b600191505092915050565b6000600754421015611376576040517f08c379a000000000000000000000000000000000000000000000000000000000815260040161136d906120f5565b60405180910390fd5b6113886113816115b8565b848461178b565b6001905092915050565b60075481565b60006060600a546040518060400160405280600381526020017f5765690000000000000000000000000000000000000000000000000000000000815250915091509091565b60085481565b6000600160008473ffffffffffffffffffffffffffffffffffffffff1673ffffffffffffffffffffffffffffffffffffffff16815260200190815260200160002060008373ffffffffffffffffffffffffffffffffffffffff1673ffffffffffffffffffffffffffffffffffffffff16815260200190815260200160002054905092915050565b6000600854905090565b600560009054906101000a900473ffffffffffffffffffffffffffffffffffffffff1673ffffffffffffffffffffffffffffffffffffffff163373ffffffffffffffffffffffffffffffffffffffff1614611504576040517f08c379a00000000000000000000000000000000000000000000000000000000081526004016114fb90612035565b60405180910390fd5b600073ffffffffffffffffffffffffffffffffffffffff168173ffffffffffffffffffffffffffffffffffffffff161415611574576040517f08c379a000000000000000000000000000000000000000000000000000000000815260040161156b90612055565b60405180910390fd5b80600560006101000a81548173ffffffffffffffffffffffffffffffffffffffff021916908373ffffffffffffffffffffffffffffffffffffffff16021790555050565b600033905090565b600073ffffffffffffffffffffffffffffffffffffffff168373ffffffffffffffffffffffffffffffffffffffff161415611630576040517f08c379a000000000000000000000000000000000000000000000000000000000815260040161162790612195565b60405180910390fd5b600073ffffffffffffffffffffffffffffffffffffffff168273ffffffffffffffffffffffffffffffffffffffff1614156116a0576040517f08c379a000000000000000000000000000000000000000000000000000000000815260040161169790612075565b60405180910390fd5b80600160008573ffffffffffffffffffffffffffffffffffffffff1673ffffffffffffffffffffffffffffffffffffffff16815260200190815260200160002060008473ffffffffffffffffffffffffffffffffffffffff1673ffffffffffffffffffffffffffffffffffffffff168152602001908152602001600020819055508173ffffffffffffffffffffffffffffffffffffffff168373ffffffffffffffffffffffffffffffffffffffff167f8c5be1e5ebec7d5bd14f71427d1e84f3dd0314c0f7b2291e5b200ac8c7c3b9258360405161177e91906121f5565b60405180910390a3505050565b600073ffffffffffffffffffffffffffffffffffffffff168373ffffffffffffffffffffffffffffffffffffffff1614156117fb576040517f08c379a00000000000000000000000000000000000000000000000000000000081526004016117f290612175565b60405180910390fd5b600073ffffffffffffffffffffffffffffffffffffffff168273ffffffffffffffffffffffffffffffffffffffff16141561186b576040517f08c379a000000000000000000000000000000000000000000000000000000000815260040161186290611ff5565b60405180910390fd5b611876838383611bb0565b60008060008573ffffffffffffffffffffffffffffffffffffffff1673ffffffffffffffffffffffffffffffffffffffff168152602001908152602001600020549050818110156118fc576040517f08c379a00000000000000000000000000000000000000000000000000000000081526004016118f3906120b5565b60405180910390fd5b81816119089190612358565b6000808673ffffffffffffffffffffffffffffffffffffffff1673ffffffffffffffffffffffffffffffffffffffff16815260200190815260200160002081905550816000808573ffffffffffffffffffffffffffffffffffffffff1673ffffffffffffffffffffffffffffffffffffffff16815260200190815260200160002060008282546119989190612277565b925050819055508273ffffffffffffffffffffffffffffffffffffffff168473ffffffffffffffffffffffffffffffffffffffff167fddf252ad1be2c89b69c2b068fc378daa952ba7f163c4a11628f55a4df523b3ef846040516119fc91906121f5565b60405180910390a350505050565b600073ffffffffffffffffffffffffffffffffffffffff168273ffffffffffffffffffffffffffffffffffffffff161415611a7a576040517f08c379a0000000000000000000000000000000000000000000000000000000008152600401611a71906121d5565b60405180910390fd5b60085481600254611a8b9190612277565b1115611acc576040517f08c379a0000000000000000000000000000000000000000000000000000000008152600401611ac3906120d5565b60405180910390fd5b611ad860008383611bb0565b8060026000828254611aea9190612277565b92505081905550806000808473ffffffffffffffffffffffffffffffffffffffff1673ffffffffffffffffffffffffffffffffffffffff1681526020019081526020016000206000828254611b3f9190612277565b925050819055508173ffffffffffffffffffffffffffffffffffffffff16600073ffffffffffffffffffffffffffffffffffffffff167fddf252ad1be2c89b69c2b068fc378daa952ba7f163c4a11628f55a4df523b3ef83604051611ba491906121f5565b60405180910390a35050565b505050565b600081359050611bc481612962565b92915050565b600081359050611bd981612979565b92915050565b600060208284031215611bf157600080fd5b6000611bff84828501611bb5565b91505092915050565b60008060408385031215611c1b57600080fd5b6000611c2985828601611bb5565b9250506020611c3a85828601611bb5565b9150509250929050565b600080600060608486031215611c5957600080fd5b6000611c6786828701611bb5565b9350506020611c7886828701611bb5565b9250506040611c8986828701611bca565b9150509250925092565b60008060408385031215611ca657600080fd5b6000611cb485828601611bb5565b9250506020611cc585828601611bca565b9150509250929050565b600060208284031215611ce157600080fd5b6000611cef84828501611bca565b91505092915050565b611d018161238c565b82525050565b611d108161239e565b82525050565b6000611d218261225b565b611d2b8185612266565b9350611d3b8185602086016123e1565b611d44816124d3565b840191505092915050565b6000611d5c602383612266565b9150611d67826124e4565b604082019050919050565b6000611d7f602f83612266565b9150611d8a82612533565b604082019050919050565b6000611da2602283612266565b9150611dad82612582565b604082019050919050565b6000611dc5602683612266565b9150611dd0826125d1565b604082019050919050565b6000611de8602283612266565b9150611df382612620565b604082019050919050565b6000611e0b602d83612266565b9150611e168261266f565b604082019050919050565b6000611e2e602683612266565b9150611e39826126be565b604082019050919050565b6000611e51601c83612266565b9150611e5c8261270d565b602082019050919050565b6000611e74600c83612266565b9150611e7f82612736565b602082019050919050565b6000611e97602483612266565b9150611ea28261275f565b604082019050919050565b6000611eba602883612266565b9150611ec5826127ae565b604082019050919050565b6000611edd603183612266565b9150611ee8826127fd565b604082019050919050565b6000611f00602583612266565b9150611f0b8261284c565b604082019050919050565b6000611f23602483612266565b9150611f2e8261289b565b604082019050919050565b6000611f46602583612266565b9150611f51826128ea565b604082019050919050565b6000611f69601f83612266565b9150611f7482612939565b602082019050919050565b611f88816123ca565b82525050565b611f97816123d4565b82525050565b6000602082019050611fb26000830184611cf8565b92915050565b6000602082019050611fcd6000830184611d07565b92915050565b60006020820190508181036000830152611fed8184611d16565b905092915050565b6000602082019050818103600083015261200e81611d4f565b9050919050565b6000602082019050818103600083015261202e81611d72565b9050919050565b6000602082019050818103600083015261204e81611d95565b9050919050565b6000602082019050818103600083015261206e81611db8565b9050919050565b6000602082019050818103600083015261208e81611ddb565b9050919050565b600060208201905081810360008301526120ae81611dfe565b9050919050565b600060208201905081810360008301526120ce81611e21565b9050919050565b600060208201905081810360008301526120ee81611e44565b9050919050565b6000602082019050818103600083015261210e81611e67565b9050919050565b6000602082019050818103600083015261212e81611e8a565b9050919050565b6000602082019050818103600083015261214e81611ead565b9050919050565b6000602082019050818103600083015261216e81611ed0565b9050919050565b6000602082019050818103600083015261218e81611ef3565b9050919050565b600060208201905081810360008301526121ae81611f16565b9050919050565b600060208201905081810360008301526121ce81611f39565b9050919050565b600060208201905081810360008301526121ee81611f5c565b9050919050565b600060208201905061220a6000830184611f7f565b92915050565b60006040820190506122256000830185611f7f565b81810360208301526122378184611d16565b90509392505050565b60006020820190506122556000830184611f8e565b92915050565b600081519050919050565b600082825260208201905092915050565b6000612282826123ca565b915061228d836123ca565b9250827fffffffffffffffffffffffffffffffffffffffffffffffffffffffffffffffff038211156122c2576122c1612446565b5b828201905092915050565b60006122d8826123ca565b91506122e3836123ca565b9250826122f3576122f2612475565b5b828204905092915050565b6000612309826123ca565b9150612314836123ca565b9250817fffffffffffffffffffffffffffffffffffffffffffffffffffffffffffffffff048311821515161561234d5761234c612446565b5b828202905092915050565b6000612363826123ca565b915061236e836123ca565b92508282101561238157612380612446565b5b828203905092915050565b6000612397826123aa565b9050919050565b60008115159050919050565b600073ffffffffffffffffffffffffffffffffffffffff82169050919050565b6000819050919050565b600060ff82169050919050565b60005b838110156123ff5780820151818401526020810190506123e4565b8381111561240e576000848401525b50505050565b6000600282049050600182168061242c57607f821691505b602082108114156124405761243f6124a4565b5b50919050565b7f4e487b7100000000000000000000000000000000000000000000000000000000600052601160045260246000fd5b7f4e487b7100000000000000000000000000000000000000000000000000000000600052601260045260246000fd5b7f4e487b7100000000000000000000000000000000000000000000000000000000600052602260045260246000fd5b6000601f19601f8301169050919050565b7f45524332303a207472616e7366657220746f20746865207a65726f206164647260008201527f6573730000000000000000000000000000000000000000000000000000000000602082015250565b7f4f6e6c7920617574686f72697a656420706572736f6e732063616e2063616c6c60008201527f20746869732066756e6374696f6e2e0000000000000000000000000000000000602082015250565b7f4f6e6c79206f776e65722063616e2063616c6c20746869732066756e6374696f60008201527f6e2e000000000000000000000000000000000000000000000000000000000000602082015250565b7f4f776e61626c653a206e6577206f776e657220697320746865207a65726f206160008201527f6464726573730000000000000000000000000000000000000000000000000000602082015250565b7f45524332303a20617070726f766520746f20746865207a65726f20616464726560008201527f7373000000000000000000000000000000000000000000000000000000000000602082015250565b7f596f75206172652061736b696e6720666f72206d6f726520746f6b656e73207460008201527f68616e20796f7520686176652e00000000000000000000000000000000000000602082015250565b7f45524332303a207472616e7366657220616d6f756e742065786365656473206260008201527f616c616e63650000000000000000000000000000000000000000000000000000602082015250565b7f596f752061726520657863656564696e6720746f6b656e206361702e00000000600082015250565b7f506c6561736520776169742e0000000000000000000000000000000000000000600082015250565b7f596f7520646f6e2774206861766520616e7920746f6b656e7320746f2072657460008201527f75726e2e00000000000000000000000000000000000000000000000000000000602082015250565b7f45524332303a207472616e7366657220616d6f756e742065786365656473206160008201527f6c6c6f77616e6365000000000000000000000000000000000000000000000000602082015250565b7f596f752068617665206e6f742073706563696669656420616e7920616d6f756e60008201527f7420666f7220696e766573746d656e742e000000000000000000000000000000602082015250565b7f45524332303a207472616e736665722066726f6d20746865207a65726f20616460008201527f6472657373000000000000000000000000000000000000000000000000000000602082015250565b7f45524332303a20617070726f76652066726f6d20746865207a65726f2061646460008201527f7265737300000000000000000000000000000000000000000000000000000000602082015250565b7f45524332303a2064656372656173656420616c6c6f77616e63652062656c6f7760008201527f207a65726f000000000000000000000000000000000000000000000000000000602082015250565b7f45524332303a206d696e7420746f20746865207a65726f206164647265737300600082015250565b61296b8161238c565b811461297657600080fd5b50565b612982816123ca565b811461298d57600080fd5b5056fe4d4e5420746f6b656e73207472616e7366657272656420746f20796f7572206163636f756e742e4574686572207472616e73666572656420746f206f776e6572206163636f756e742ea264697066735822122017ffc3db8843c8cd69087970e36da24484e01af8378a1eea86bee06e030edb8864736f6c63430008040033",
  "immutableReferences": {},
  "source": "// SPDX-License-Identifier: MIT\n\npragma solidity ^0.8.4;\n\n\n///IERC20\ninterface IERC20 {\n    /**\n     * @dev Returns the amount of tokens in existence.\n     */\n    function totalSupply() external view returns (uint256);\n\n    /**\n     * @dev Returns the amount of tokens owned by `account`.\n     */\n    function balanceOf(address account) external view returns (uint256);\n\n    /**\n     * @dev Moves `amount` tokens from the caller's account to `recipient`.\n     *\n     * Returns a boolean value indicating whether the operation succeeded.\n     *\n     * Emits a {Transfer} event.\n     */\n    function transfer(address recipient, uint256 amount) external returns (bool);\n\n    /**\n     * @dev Returns the remaining number of tokens that `spender` will be\n     * allowed to spend on behalf of `owner` through {transferFrom}. This is\n     * zero by default.\n     *\n     * This value changes when {approve} or {transferFrom} are called.\n     */\n    function allowance(address owner, address spender) external view returns (uint256);\n\n    /**\n     * @dev Sets `amount` as the allowance of `spender` over the caller's tokens.\n     *\n     * Returns a boolean value indicating whether the operation succeeded.\n     *\n     * IMPORTANT: Beware that changing an allowance with this method brings the risk\n     * that someone may use both the old and the new allowance by unfortunate\n     * transaction ordering. One possible solution to mitigate this race\n     * condition is to first reduce the spender's allowance to 0 and set the\n     * desired value afterwards:\n     * https://github.com/ethereum/EIPs/issues/20#issuecomment-263524729\n     *\n     * Emits an {Approval} event.\n     */\n    function approve(address spender, uint256 amount) external returns (bool);\n\n    /**\n     * @dev Moves `amount` tokens from `sender` to `recipient` using the\n     * allowance mechanism. `amount` is then deducted from the caller's\n     * allowance.\n     *\n     * Returns a boolean value indicating whether the operation succeeded.\n     *\n     * Emits a {Transfer} event.\n     */\n    function transferFrom(address sender, address recipient, uint256 amount) external returns (bool);\n\n    /**\n     * @dev Emitted when `value` tokens are moved from one account (`from`) to\n     * another (`to`).\n     *\n     * Note that `value` may be zero.\n     */\n    event Transfer(address indexed from, address indexed to, uint256 value);\n\n    /**\n     * @dev Emitted when the allowance of a `spender` for an `owner` is set by\n     * a call to {approve}. `value` is the new allowance.\n     */\n    event Approval(address indexed owner, address indexed spender, uint256 value);\n}\n\n///Context\n/*\n * @dev Provides information about the current execution context, including the\n * sender of the transaction and its data. While these are generally available\n * via msg.sender and msg.data, they should not be accessed in such a direct\n * manner, since when dealing with meta-transactions the account sending and\n * paying for execution may not be the actual sender (as far as an application\n * is concerned).\n *\n * This contract is only required for intermediate, library-like contracts.\n */\nabstract contract Context {\n    function _msgSender() internal view virtual returns (address) {\n        return msg.sender;\n    }\n\n    function _msgData() internal view virtual returns (bytes calldata) {\n        this; // silence state mutability warning without generating bytecode - see https://github.com/ethereum/solidity/issues/2691\n        return msg.data;\n    }\n}\n\n///IERC20Metadata\n/**\n * @dev Interface for the optional metadata functions from the ERC20 standard.\n *\n * _Available since v4.1._\n */\ninterface IERC20Metadata is IERC20 {\n    /**\n     * @dev Returns the name of the token.\n     */\n    function name() external view returns (string memory);\n\n    /**\n     * @dev Returns the symbol of the token.\n     */\n    function symbol() external view returns (string memory);\n\n    /**\n     * @dev Returns the decimals places of the token.\n     */\n    function decimals() external view returns (uint8);\n}\n\n///ERC20\n/**\n * @dev Implementation of the {IERC20} interface.\n *\n * This implementation is agnostic to the way tokens are created. This means\n * that a supply mechanism has to be added in a derived contract using {_mint}.\n * For a generic mechanism see {ERC20PresetMinterPauser}.\n *\n * TIP: For a detailed writeup see our guide\n * https://forum.zeppelin.solutions/t/how-to-implement-erc20-supply-mechanisms/226[How\n * to implement supply mechanisms].\n *\n * We have followed general OpenZeppelin guidelines: functions revert instead\n * of returning `false` on failure. This behavior is nonetheless conventional\n * and does not conflict with the expectations of ERC20 applications.\n *\n * Additionally, an {Approval} event is emitted on calls to {transferFrom}.\n * This allows applications to reconstruct the allowance for all accounts just\n * by listening to said events. Other implementations of the EIP may not emit\n * these events, as it isn't required by the specification.\n *\n * Finally, the non-standard {decreaseAllowance} and {increaseAllowance}\n * functions have been added to mitigate the well-known issues around setting\n * allowances. See {IERC20-approve}.\n */\ncontract MNT is Context, IERC20, IERC20Metadata {\n    mapping (address => uint256) private _balances;\n\n    mapping (address => mapping (address => uint256)) private _allowances;\n\n    uint256 private _totalSupply;\n    string private _name;\n    string private _symbol;\n\n    ///dev Mansoob: Owner variable added\n    address tokenOwner;\n\n\n    ///variables for timelocking and capping\n    uint public duration = 2 minutes;\n    uint public releaseTime;\n    uint public tokenCap;\n\n    ///Variable for address authrized to change price\n    address public approver;\n\n\n    /**\n     * @dev Sets the values for {name} and {symbol}.\n     *\n     * The defaut value of {decimals} is 18. To select a different value for\n     * {decimals} you should overload it.\n     *\n     * All two of these values are immutable: they can only be set once during\n     * construction.\n     */\n\n    ///UPDATE THE CONSTRUCTOR FOR NAME AND SYMBOL\n     ///OLD CODE\n    /*constructor (string memory name_, string memory symbol_) {\n        _name = name_;\n        _symbol = symbol_;\n    }*/\n\n    ///dev Mansoob: MODIFIED CODE OF CONSTRUCTOR\n    constructor () {\n        _name = \"My TOKEN\";\n        _symbol = \"MNT\";\n        _totalSupply = 5000000*10**(decimals());\n        _balances[_msgSender()] = _totalSupply;\n        tokenOwner = msg.sender;\n        releaseTime = block.timestamp + duration;\n        tokenCap = _totalSupply * 2;\n    }\n\n    event OwnershipTransferred(address indexed previousOwner, address indexed newOwner);\n\n\n///dev Mansoob: Modifier to be used so that only creator could call the mint functions\n    modifier onlyOwner(){\n        require (msg.sender == tokenOwner, \"Only owner can call this function.\");\n        _;\n    }\n\n    modifier OwnerDelegate(){\n        require (msg.sender == tokenOwner || msg.sender == approver, \"Only authorized persons can call this function.\");\n        _;\n    }\n\n\n    /**\n     * @dev Returns the name of the token.\n     */\n    function name() public view virtual override returns (string memory) {\n        return _name;\n    }\n\n    /**\n     * @dev Returns the symbol of the token, usually a shorter version of the\n     * name.\n     */\n    function symbol() public view virtual override returns (string memory) {\n        return _symbol;\n    }\n\n    /**\n     * @dev Returns the number of decimals used to get its user representation.\n     * For example, if `decimals` equals `2`, a balance of `505` tokens should\n     * be displayed to a user as `5,05` (`505 / 10 ** 2`).\n     *\n     * Tokens usually opt for a value of 18, imitating the relationship between\n     * Ether and Wei. This is the value {ERC20} uses, unless this function is\n     * overridden;\n     *\n     * NOTE: This information is only used for _display_ purposes: it in\n     * no way affects any of the arithmetic of the contract, including\n     * {IERC20-balanceOf} and {IERC20-transfer}.\n     */\n    function decimals() public view virtual override returns (uint8) {\n        return 18;\n    }\n\n    /**\n     * @dev See {IERC20-totalSupply}.\n     */\n    function totalSupply() public view virtual override returns (uint256) {\n        return _totalSupply;\n    }\n\n    function ViewTokenCap() public view returns (uint256) {\n        return tokenCap;\n    }\n\n\n    function TokenOwner() public view returns (address) {\n        return tokenOwner;\n    }\n\n    function Auth_Price_Changer() public view returns (address) {\n        return approver;\n    }\n\n\n    /**\n     * @dev See {IERC20-balanceOf}.\n     */\n    function balanceOf(address account) public view virtual override returns (uint256) {\n        return _balances[account];\n    }\n\n    /**\n     * @dev See {IERC20-transfer}.\n     *\n     * Requirements:\n     *\n     * - `recipient` cannot be the zero address.\n     * - the caller must have a balance of at least `amount`.\n     */\n    function transfer(address recipient, uint256 amount) public virtual override returns (bool) {\n        require(block.timestamp >= releaseTime, \"Please wait.\");\n        _transfer(_msgSender(), recipient, amount);\n        return true;\n    }\n\n    /**\n     * @dev See {IERC20-allowance}.\n     */\n    function allowance(address owner, address spender) public view virtual override returns (uint256) {\n        return _allowances[owner][spender];\n    }\n\n    /**\n     * @dev See {IERC20-approve}.\n     *\n     * Requirements:\n     *\n     * - `spender` cannot be the zero address.\n     */\n    function approve(address spender, uint256 amount) public virtual override returns (bool) {\n        _approve(_msgSender(), spender, amount);\n        return true;\n    }\n\n    /**\n     * @dev See {IERC20-transferFrom}.\n     *\n     * Emits an {Approval} event indicating the updated allowance. This is not\n     * required by the EIP. See the note at the beginning of {ERC20}.\n     *\n     * Requirements:\n     *\n     * - `sender` and `recipient` cannot be the zero address.\n     * - `sender` must have a balance of at least `amount`.\n     * - the caller must have allowance for ``sender``'s tokens of at least\n     * `amount`.\n     */\n    function transferFrom(address sender, address recipient, uint256 amount) public virtual override returns (bool) {\n        _transfer(sender, recipient, amount);\n\n        uint256 currentAllowance = _allowances[sender][_msgSender()];\n        require(currentAllowance >= amount, \"ERC20: transfer amount exceeds allowance\");\n        _approve(sender, _msgSender(), currentAllowance - amount);\n\n        return true;\n    }\n\n    /**\n     * @dev Atomically increases the allowance granted to `spender` by the caller.\n     *\n     * This is an alternative to {approve} that can be used as a mitigation for\n     * problems described in {IERC20-approve}.\n     *\n     * Emits an {Approval} event indicating the updated allowance.\n     *\n     * Requirements:\n     *\n     * - `spender` cannot be the zero address.\n     */\n    function increaseAllowance(address spender, uint256 addedValue) public virtual returns (bool) {\n        _approve(_msgSender(), spender, _allowances[_msgSender()][spender] + addedValue);\n        return true;\n    }\n\n    /**\n     * @dev Atomically decreases the allowance granted to `spender` by the caller.\n     *\n     * This is an alternative to {approve} that can be used as a mitigation for\n     * problems described in {IERC20-approve}.\n     *\n     * Emits an {Approval} event indicating the updated allowance.\n     *\n     * Requirements:\n     *\n     * - `spender` cannot be the zero address.\n     * - `spender` must have allowance for the caller of at least\n     * `subtractedValue`.\n     */\n    function decreaseAllowance(address spender, uint256 subtractedValue) public virtual returns (bool) {\n        uint256 currentAllowance = _allowances[_msgSender()][spender];\n        require(currentAllowance >= subtractedValue, \"ERC20: decreased allowance below zero\");\n        _approve(_msgSender(), spender, currentAllowance - subtractedValue);\n\n        return true;\n    }\n\n    /**\n     * @dev Moves tokens `amount` from `sender` to `recipient`.\n     *\n     * This is internal function is equivalent to {transfer}, and can be used to\n     * e.g. implement automatic token fees, slashing mechanisms, etc.\n     *\n     * Emits a {Transfer} event.\n     *\n     * Requirements:\n     *\n     * - `sender` cannot be the zero address.\n     * - `recipient` cannot be the zero address.\n     * - `sender` must have a balance of at least `amount`.\n     */\n    function _transfer(address sender, address recipient, uint256 amount) internal virtual {\n        require(sender != address(0), \"ERC20: transfer from the zero address\");\n        require(recipient != address(0), \"ERC20: transfer to the zero address\");\n\n        _beforeTokenTransfer(sender, recipient, amount);\n\n        uint256 senderBalance = _balances[sender];\n        require(senderBalance >= amount, \"ERC20: transfer amount exceeds balance\");\n        _balances[sender] = senderBalance - amount;\n        _balances[recipient] += amount;\n\n        emit Transfer(sender, recipient, amount);\n    }\n\n    /** @dev Creates `amount` tokens and assigns them to `account`, increasing\n     * the total supply.\n     *\n     * Emits a {Transfer} event with `from` set to the zero address.\n     *\n     * Requirements:\n     *\n     * - `to` cannot be the zero address.\n     */\n    function _mint(address account, uint256 amount) internal virtual {\n        require(account != address(0), \"ERC20: mint to the zero address\");\n        require(_totalSupply + amount <= tokenCap, \"You are exceeding token cap.\");\n        _beforeTokenTransfer(address(0), account, amount);\n\n        _totalSupply += amount;\n        _balances[account] += amount;\n        emit Transfer(address(0), account, amount);\n    }\n\n    ///dev Mansoob: to make the mint function public so that total supply could be increased\n\n   function mint(address account, uint256 amount) public onlyOwner {\n        _mint(account, amount);\n    }\n\n    /**\n     * @dev Destroys `amount` tokens from `account`, reducing the\n     * total supply.\n     *\n     * Emits a {Transfer} event with `to` set to the zero address.\n     *\n     * Requirements:\n     *\n     * - `account` cannot be the zero address.\n     * - `account` must have at least `amount` tokens.\n     */\n    function _burn(address account, uint256 amount) internal virtual {\n        require(account != address(0), \"ERC20: burn from the zero address\");\n\n        _beforeTokenTransfer(account, address(0), amount);\n\n        uint256 accountBalance = _balances[account];\n        require(accountBalance >= amount, \"ERC20: burn amount exceeds balance\");\n        _balances[account] = accountBalance - amount;\n        _totalSupply -= amount;\n\n        emit Transfer(account, address(0), amount);\n    }\n\n    /**\n     * @dev Sets `amount` as the allowance of `spender` over the `owner` s tokens.\n     *\n     * This internal function is equivalent to `approve`, and can be used to\n     * e.g. set automatic allowances for certain subsystems, etc.\n     *\n     * Emits an {Approval} event.\n     *\n     * Requirements:\n     *\n     * - `owner` cannot be the zero address.\n     * - `spender` cannot be the zero address.\n     */\n    function _approve(address owner, address spender, uint256 amount) internal virtual {\n        require(owner != address(0), \"ERC20: approve from the zero address\");\n        require(spender != address(0), \"ERC20: approve to the zero address\");\n\n        _allowances[owner][spender] = amount;\n        emit Approval(owner, spender, amount);\n    }\n\n//dev Mansoob additional functions from line number 466 to 529\n\n      uint tokenPrice = 1*10**16;\n\n      function viewPrice() public view returns(uint, string memory){\n          return(tokenPrice, \"Wei\");\n      }\n\n\n      function setPrice(uint newPrice) public OwnerDelegate returns(uint){\n          tokenPrice = newPrice;\n          return(tokenPrice);\n      }\n\n      function buyToken() payable public returns(uint, string memory){\n          require(msg.value > 0, \"You have not specified any amount for investment.\");\n          uint Investment = msg.value;\n          uint tokenQty = Investment / tokenPrice;\n          _balances[tokenOwner] -= tokenQty * 1e18;\n          _balances[msg.sender] += tokenQty * 1e18;\n          return(tokenQty, \"MNT tokens transferred to your account.\");\n      }\n\n      receive () external payable{\n          buyToken();\n      }\n\n      function withdrawEther() public onlyOwner returns(uint, string memory) {\n        uint balance = address(this).balance;\n        address payable to = payable(msg.sender);\n        to.transfer(balance);\n        return(balance, \"Ether transfered to owner account.\");\n    }\n\n    /// Transfer ownership\n    function transferOwnership(address newOwner) public virtual onlyOwner {\n        require(newOwner != address(0), \"Ownable: new owner is the zero address\");\n        //emit OwnershipTransferred(_owner, newOwner);\n        tokenOwner = newOwner;\n    }\n\n\n\n    ///Approve address as authorized person to change price\n    function delegatePriceControl(address delegatedAddress) external onlyOwner{\n        require(delegatedAddress != address(0), \"Ownable: new owner is the zero address\");\n        approver = delegatedAddress;\n    }\n\n    ///dev. 1. require msg.sender has token balance. 2. add tokens to tokenOwner 3. reduce balance of msg.sender 4. transfer ethers equal to toke value\n\n\n    function returnToken(uint tokenQty) payable public returns(uint, string memory){\n        require(_balances[msg.sender] > 0, \"You don't have any tokens to return.\");\n        require(_balances[msg.sender] >= tokenQty, \"You are asking for more tokens than you have.\");\n        uint ethersToReturn = tokenQty * tokenPrice;\n        address payable to = payable(msg.sender);\n        _balances[tokenOwner] += tokenQty * 1e18;\n        _balances[msg.sender] -= tokenQty * 1e18;\n        to.transfer(ethersToReturn);\n        return(ethersToReturn, \"Ether returned to your account.\");\n    }\n\n//dev Mansoob end of additional functions\n\n    /**\n     * @dev Hook that is called before any transfer of tokens. This includes\n     * minting and burning.\n     *\n     * Calling conditions:\n     *\n     * - when `from` and `to` are both non-zero, `amount` of ``from``'s tokens\n     * will be to transferred to `to`.\n     * - when `from` is zero, `amount` tokens will be minted for `to`.\n     * - when `to` is zero, `amount` of ``from``'s tokens will be burned.\n     * - `from` and `to` are never both zero.\n     *\n     * To learn more about hooks, head to xref:ROOT:extending-contracts.adoc#using-hooks[Using Hooks].\n     */\n    function _beforeTokenTransfer(address from, address to, uint256 amount) internal virtual { }\n\n}",
  "sourcePath": "D:\\PIAIC Bootcamp (BCC)\\Truffle Projects\\Assignment 3C\\contracts\\MNT.sol",
  "compiler": {
    "name": "solc",
    "version": "0.8.4+commit.c7e474f2.Emscripten.clang"
  },
  "schemaVersion": "3.4.3",
  "updatedAt": "2021-09-06T13:33:25.160Z",
  "networkType": "ethereum",
  "devdoc": {
    "details": "Implementation of the {IERC20} interface. This implementation is agnostic to the way tokens are created. This means that a supply mechanism has to be added in a derived contract using {_mint}. For a generic mechanism see {ERC20PresetMinterPauser}. TIP: For a detailed writeup see our guide https://forum.zeppelin.solutions/t/how-to-implement-erc20-supply-mechanisms/226[How to implement supply mechanisms]. We have followed general OpenZeppelin guidelines: functions revert instead of returning `false` on failure. This behavior is nonetheless conventional and does not conflict with the expectations of ERC20 applications. Additionally, an {Approval} event is emitted on calls to {transferFrom}. This allows applications to reconstruct the allowance for all accounts just by listening to said events. Other implementations of the EIP may not emit these events, as it isn't required by the specification. Finally, the non-standard {decreaseAllowance} and {increaseAllowance} functions have been added to mitigate the well-known issues around setting allowances. See {IERC20-approve}.",
    "kind": "dev",
    "methods": {
      "allowance(address,address)": {
        "details": "See {IERC20-allowance}."
      },
      "approve(address,uint256)": {
        "details": "See {IERC20-approve}. Requirements: - `spender` cannot be the zero address."
      },
      "balanceOf(address)": {
        "details": "See {IERC20-balanceOf}."
      },
      "decimals()": {
        "details": "Returns the number of decimals used to get its user representation. For example, if `decimals` equals `2`, a balance of `505` tokens should be displayed to a user as `5,05` (`505 / 10 ** 2`). Tokens usually opt for a value of 18, imitating the relationship between Ether and Wei. This is the value {ERC20} uses, unless this function is overridden; NOTE: This information is only used for _display_ purposes: it in no way affects any of the arithmetic of the contract, including {IERC20-balanceOf} and {IERC20-transfer}."
      },
      "decreaseAllowance(address,uint256)": {
        "details": "Atomically decreases the allowance granted to `spender` by the caller. This is an alternative to {approve} that can be used as a mitigation for problems described in {IERC20-approve}. Emits an {Approval} event indicating the updated allowance. Requirements: - `spender` cannot be the zero address. - `spender` must have allowance for the caller of at least `subtractedValue`."
      },
      "increaseAllowance(address,uint256)": {
        "details": "Atomically increases the allowance granted to `spender` by the caller. This is an alternative to {approve} that can be used as a mitigation for problems described in {IERC20-approve}. Emits an {Approval} event indicating the updated allowance. Requirements: - `spender` cannot be the zero address."
      },
      "name()": {
        "details": "Returns the name of the token."
      },
      "symbol()": {
        "details": "Returns the symbol of the token, usually a shorter version of the name."
      },
      "totalSupply()": {
        "details": "See {IERC20-totalSupply}."
      },
      "transfer(address,uint256)": {
        "details": "See {IERC20-transfer}. Requirements: - `recipient` cannot be the zero address. - the caller must have a balance of at least `amount`."
      },
      "transferFrom(address,address,uint256)": {
        "details": "See {IERC20-transferFrom}. Emits an {Approval} event indicating the updated allowance. This is not required by the EIP. See the note at the beginning of {ERC20}. Requirements: - `sender` and `recipient` cannot be the zero address. - `sender` must have a balance of at least `amount`. - the caller must have allowance for ``sender``'s tokens of at least `amount`."
      }
    },
    "version": 1
  },
  "userdoc": {
    "kind": "user",
    "methods": {
      "approver()": {
        "notice": "Variable for address authrized to change price"
      },
      "constructor": {
        "notice": "dev Mansoob: MODIFIED CODE OF CONSTRUCTOR"
      },
      "delegatePriceControl(address)": {
        "notice": "Approve address as authorized person to change price"
      },
      "duration()": {
        "notice": "variables for timelocking and capping"
      },
      "mint(address,uint256)": {
        "notice": "dev Mansoob: to make the mint function public so that total supply could be increased"
      },
      "returnToken(uint256)": {
        "notice": "dev. 1. require msg.sender has token balance. 2. add tokens to tokenOwner 3. reduce balance of msg.sender 4. transfer ethers equal to toke value"
      },
      "transferOwnership(address)": {
        "notice": "Transfer ownership"
      }
    },
    "version": 1
  }
}